{
  "contractName": "GovernorAlpha",
  "abi": [
    {
      "inputs": [
        {
          "internalType": "address",
          "name": "timelock_",
          "type": "address"
        },
        {
          "internalType": "address",
          "name": "comp_",
          "type": "address"
        },
        {
          "internalType": "address",
          "name": "guardian_",
          "type": "address"
        }
      ],
      "payable": false,
      "stateMutability": "nonpayable",
      "type": "constructor"
    },
    {
      "anonymous": false,
      "inputs": [
        {
          "indexed": false,
          "internalType": "uint256",
          "name": "id",
          "type": "uint256"
        }
      ],
      "name": "ProposalCanceled",
      "type": "event"
    },
    {
      "anonymous": false,
      "inputs": [
        {
          "indexed": false,
          "internalType": "uint256",
          "name": "id",
          "type": "uint256"
        },
        {
          "indexed": false,
          "internalType": "address",
          "name": "proposer",
          "type": "address"
        },
        {
          "indexed": false,
          "internalType": "address[]",
          "name": "targets",
          "type": "address[]"
        },
        {
          "indexed": false,
          "internalType": "uint256[]",
          "name": "values",
          "type": "uint256[]"
        },
        {
          "indexed": false,
          "internalType": "string[]",
          "name": "signatures",
          "type": "string[]"
        },
        {
          "indexed": false,
          "internalType": "bytes[]",
          "name": "calldatas",
          "type": "bytes[]"
        },
        {
          "indexed": false,
          "internalType": "uint256",
          "name": "startBlock",
          "type": "uint256"
        },
        {
          "indexed": false,
          "internalType": "uint256",
          "name": "endBlock",
          "type": "uint256"
        },
        {
          "indexed": false,
          "internalType": "string",
          "name": "description",
          "type": "string"
        }
      ],
      "name": "ProposalCreated",
      "type": "event"
    },
    {
      "anonymous": false,
      "inputs": [
        {
          "indexed": false,
          "internalType": "uint256",
          "name": "id",
          "type": "uint256"
        }
      ],
      "name": "ProposalExecuted",
      "type": "event"
    },
    {
      "anonymous": false,
      "inputs": [
        {
          "indexed": false,
          "internalType": "uint256",
          "name": "id",
          "type": "uint256"
        },
        {
          "indexed": false,
          "internalType": "uint256",
          "name": "eta",
          "type": "uint256"
        }
      ],
      "name": "ProposalQueued",
      "type": "event"
    },
    {
      "anonymous": false,
      "inputs": [
        {
          "indexed": false,
          "internalType": "address",
          "name": "voter",
          "type": "address"
        },
        {
          "indexed": false,
          "internalType": "uint256",
          "name": "proposalId",
          "type": "uint256"
        },
        {
          "indexed": false,
          "internalType": "bool",
          "name": "support",
          "type": "bool"
        },
        {
          "indexed": false,
          "internalType": "uint256",
          "name": "votes",
          "type": "uint256"
        }
      ],
      "name": "VoteCast",
      "type": "event"
    },
    {
      "constant": true,
      "inputs": [],
      "name": "BALLOT_TYPEHASH",
      "outputs": [
        {
          "internalType": "bytes32",
          "name": "",
          "type": "bytes32"
        }
      ],
      "payable": false,
      "stateMutability": "view",
      "type": "function"
    },
    {
      "constant": true,
      "inputs": [],
      "name": "DOMAIN_TYPEHASH",
      "outputs": [
        {
          "internalType": "bytes32",
          "name": "",
          "type": "bytes32"
        }
      ],
      "payable": false,
      "stateMutability": "view",
      "type": "function"
    },
    {
      "constant": true,
      "inputs": [],
      "name": "comp",
      "outputs": [
        {
          "internalType": "contract CompInterface",
          "name": "",
          "type": "address"
        }
      ],
      "payable": false,
      "stateMutability": "view",
      "type": "function"
    },
    {
      "constant": true,
      "inputs": [],
      "name": "guardian",
      "outputs": [
        {
          "internalType": "address",
          "name": "",
          "type": "address"
        }
      ],
      "payable": false,
      "stateMutability": "view",
      "type": "function"
    },
    {
      "constant": true,
      "inputs": [
        {
          "internalType": "address",
          "name": "",
          "type": "address"
        }
      ],
      "name": "latestProposalIds",
      "outputs": [
        {
          "internalType": "uint256",
          "name": "",
          "type": "uint256"
        }
      ],
      "payable": false,
      "stateMutability": "view",
      "type": "function"
    },
    {
      "constant": true,
      "inputs": [],
      "name": "name",
      "outputs": [
        {
          "internalType": "string",
          "name": "",
          "type": "string"
        }
      ],
      "payable": false,
      "stateMutability": "view",
      "type": "function"
    },
    {
      "constant": true,
      "inputs": [],
      "name": "proposalCount",
      "outputs": [
        {
          "internalType": "uint256",
          "name": "",
          "type": "uint256"
        }
      ],
      "payable": false,
      "stateMutability": "view",
      "type": "function"
    },
    {
      "constant": true,
      "inputs": [
        {
          "internalType": "uint256",
          "name": "",
          "type": "uint256"
        }
      ],
      "name": "proposals",
      "outputs": [
        {
          "internalType": "uint256",
          "name": "id",
          "type": "uint256"
        },
        {
          "internalType": "address",
          "name": "proposer",
          "type": "address"
        },
        {
          "internalType": "uint256",
          "name": "eta",
          "type": "uint256"
        },
        {
          "internalType": "uint256",
          "name": "startBlock",
          "type": "uint256"
        },
        {
          "internalType": "uint256",
          "name": "endBlock",
          "type": "uint256"
        },
        {
          "internalType": "uint256",
          "name": "forVotes",
          "type": "uint256"
        },
        {
          "internalType": "uint256",
          "name": "againstVotes",
          "type": "uint256"
        },
        {
          "internalType": "bool",
          "name": "canceled",
          "type": "bool"
        },
        {
          "internalType": "bool",
          "name": "executed",
          "type": "bool"
        }
      ],
      "payable": false,
      "stateMutability": "view",
      "type": "function"
    },
    {
      "constant": true,
      "inputs": [],
      "name": "timelock",
      "outputs": [
        {
          "internalType": "contract TimelockInterface",
          "name": "",
          "type": "address"
        }
      ],
      "payable": false,
      "stateMutability": "view",
      "type": "function"
    },
    {
      "constant": true,
      "inputs": [],
      "name": "quorumVotes",
      "outputs": [
        {
          "internalType": "uint256",
          "name": "",
          "type": "uint256"
        }
      ],
      "payable": false,
      "stateMutability": "pure",
      "type": "function"
    },
    {
      "constant": true,
      "inputs": [],
      "name": "proposalThreshold",
      "outputs": [
        {
          "internalType": "uint256",
          "name": "",
          "type": "uint256"
        }
      ],
      "payable": false,
      "stateMutability": "pure",
      "type": "function"
    },
    {
      "constant": true,
      "inputs": [],
      "name": "proposalMaxOperations",
      "outputs": [
        {
          "internalType": "uint256",
          "name": "",
          "type": "uint256"
        }
      ],
      "payable": false,
      "stateMutability": "pure",
      "type": "function"
    },
    {
      "constant": true,
      "inputs": [],
      "name": "votingDelay",
      "outputs": [
        {
          "internalType": "uint256",
          "name": "",
          "type": "uint256"
        }
      ],
      "payable": false,
      "stateMutability": "pure",
      "type": "function"
    },
    {
      "constant": true,
      "inputs": [],
      "name": "votingPeriod",
      "outputs": [
        {
          "internalType": "uint256",
          "name": "",
          "type": "uint256"
        }
      ],
      "payable": false,
      "stateMutability": "pure",
      "type": "function"
    },
    {
      "constant": false,
      "inputs": [
        {
          "internalType": "address[]",
          "name": "targets",
          "type": "address[]"
        },
        {
          "internalType": "uint256[]",
          "name": "values",
          "type": "uint256[]"
        },
        {
          "internalType": "string[]",
          "name": "signatures",
          "type": "string[]"
        },
        {
          "internalType": "bytes[]",
          "name": "calldatas",
          "type": "bytes[]"
        },
        {
          "internalType": "string",
          "name": "description",
          "type": "string"
        }
      ],
      "name": "propose",
      "outputs": [
        {
          "internalType": "uint256",
          "name": "",
          "type": "uint256"
        }
      ],
      "payable": false,
      "stateMutability": "nonpayable",
      "type": "function"
    },
    {
      "constant": false,
      "inputs": [
        {
          "internalType": "uint256",
          "name": "proposalId",
          "type": "uint256"
        }
      ],
      "name": "queue",
      "outputs": [],
      "payable": false,
      "stateMutability": "nonpayable",
      "type": "function"
    },
    {
      "constant": false,
      "inputs": [
        {
          "internalType": "uint256",
          "name": "proposalId",
          "type": "uint256"
        }
      ],
      "name": "execute",
      "outputs": [],
      "payable": true,
      "stateMutability": "payable",
      "type": "function"
    },
    {
      "constant": false,
      "inputs": [
        {
          "internalType": "uint256",
          "name": "proposalId",
          "type": "uint256"
        }
      ],
      "name": "cancel",
      "outputs": [],
      "payable": false,
      "stateMutability": "nonpayable",
      "type": "function"
    },
    {
      "constant": true,
      "inputs": [
        {
          "internalType": "uint256",
          "name": "proposalId",
          "type": "uint256"
        }
      ],
      "name": "getActions",
      "outputs": [
        {
          "internalType": "address[]",
          "name": "targets",
          "type": "address[]"
        },
        {
          "internalType": "uint256[]",
          "name": "values",
          "type": "uint256[]"
        },
        {
          "internalType": "string[]",
          "name": "signatures",
          "type": "string[]"
        },
        {
          "internalType": "bytes[]",
          "name": "calldatas",
          "type": "bytes[]"
        }
      ],
      "payable": false,
      "stateMutability": "view",
      "type": "function"
    },
    {
      "constant": true,
      "inputs": [
        {
          "internalType": "uint256",
          "name": "proposalId",
          "type": "uint256"
        },
        {
          "internalType": "address",
          "name": "voter",
          "type": "address"
        }
      ],
      "name": "getReceipt",
      "outputs": [
        {
          "components": [
            {
              "internalType": "bool",
              "name": "hasVoted",
              "type": "bool"
            },
            {
              "internalType": "bool",
              "name": "support",
              "type": "bool"
            },
            {
              "internalType": "uint96",
              "name": "votes",
              "type": "uint96"
            }
          ],
          "internalType": "struct GovernorAlpha.Receipt",
          "name": "",
          "type": "tuple"
        }
      ],
      "payable": false,
      "stateMutability": "view",
      "type": "function"
    },
    {
      "constant": true,
      "inputs": [
        {
          "internalType": "uint256",
          "name": "proposalId",
          "type": "uint256"
        }
      ],
      "name": "state",
      "outputs": [
        {
          "internalType": "enum GovernorAlpha.ProposalState",
          "name": "",
          "type": "uint8"
        }
      ],
      "payable": false,
      "stateMutability": "view",
      "type": "function"
    },
    {
      "constant": false,
      "inputs": [
        {
          "internalType": "uint256",
          "name": "proposalId",
          "type": "uint256"
        },
        {
          "internalType": "bool",
          "name": "support",
          "type": "bool"
        }
      ],
      "name": "castVote",
      "outputs": [],
      "payable": false,
      "stateMutability": "nonpayable",
      "type": "function"
    },
    {
      "constant": false,
      "inputs": [
        {
          "internalType": "uint256",
          "name": "proposalId",
          "type": "uint256"
        },
        {
          "internalType": "bool",
          "name": "support",
          "type": "bool"
        },
        {
          "internalType": "uint8",
          "name": "v",
          "type": "uint8"
        },
        {
          "internalType": "bytes32",
          "name": "r",
          "type": "bytes32"
        },
        {
          "internalType": "bytes32",
          "name": "s",
          "type": "bytes32"
        }
      ],
      "name": "castVoteBySig",
      "outputs": [],
      "payable": false,
      "stateMutability": "nonpayable",
      "type": "function"
    },
    {
      "constant": false,
      "inputs": [],
      "name": "__acceptAdmin",
      "outputs": [],
      "payable": false,
      "stateMutability": "nonpayable",
      "type": "function"
    },
    {
      "constant": false,
      "inputs": [],
      "name": "__abdicate",
      "outputs": [],
      "payable": false,
      "stateMutability": "nonpayable",
      "type": "function"
    },
    {
      "constant": false,
      "inputs": [
        {
          "internalType": "address",
          "name": "newPendingAdmin",
          "type": "address"
        },
        {
          "internalType": "uint256",
          "name": "eta",
          "type": "uint256"
        }
      ],
      "name": "__queueSetTimelockPendingAdmin",
      "outputs": [],
      "payable": false,
      "stateMutability": "nonpayable",
      "type": "function"
    },
    {
      "constant": false,
      "inputs": [
        {
          "internalType": "address",
          "name": "newPendingAdmin",
          "type": "address"
        },
        {
          "internalType": "uint256",
          "name": "eta",
          "type": "uint256"
        }
      ],
      "name": "__executeSetTimelockPendingAdmin",
      "outputs": [],
      "payable": false,
      "stateMutability": "nonpayable",
      "type": "function"
    }
  ],
  "bytecode": "0x60806040523480156200001157600080fd5b506040516200546a3803806200546a833981810160405262000037919081019062000119565b826000806101000a81548173ffffffffffffffffffffffffffffffffffffffff021916908373ffffffffffffffffffffffffffffffffffffffff16021790555081600160006101000a81548173ffffffffffffffffffffffffffffffffffffffff021916908373ffffffffffffffffffffffffffffffffffffffff16021790555080600260006101000a81548173ffffffffffffffffffffffffffffffffffffffff021916908373ffffffffffffffffffffffffffffffffffffffff160217905550505050620001bd565b6000815190506200011381620001a3565b92915050565b6000806000606084860312156200012f57600080fd5b60006200013f8682870162000102565b9350506020620001528682870162000102565b9250506040620001658682870162000102565b9150509250925092565b60006200017c8262000183565b9050919050565b600073ffffffffffffffffffffffffffffffffffffffff82169050919050565b620001ae816200016f565b8114620001ba57600080fd5b50565b61529d80620001cd6000396000f3fe60806040526004361061019c5760003560e01c8063452a9320116100ec578063d33219b41161008a578063ddf0b00911610064578063ddf0b009146105b1578063deaaa7cc146105da578063e23a9a5214610605578063fe0d94c1146106425761019c565b8063d33219b41461051e578063da35c66414610549578063da95691a146105745761019c565b80637bdbe4d0116100c65780637bdbe4d01461048857806391500671146104b3578063b58131b0146104dc578063b9a61961146105075761019c565b8063452a93201461041d5780634634c61f14610448578063760fbc13146104715761019c565b806320606b7011610159578063328dd98211610133578063328dd9821461034c5780633932abb11461038c5780633e4f49e6146103b757806340e58ee5146103f45761019c565b806320606b70146102cd57806321f43e42146102f857806324bc1a64146103215761019c565b8063013cf08b146101a157806302a251a3146101e657806306fdde0314610211578063109d0af81461023c57806315373e3d1461026757806317977c6114610290575b600080fd5b3480156101ad57600080fd5b506101c860048036036101c39190810190613371565b61065e565b6040516101dd99989796959493929190614c6c565b60405180910390f35b3480156101f257600080fd5b506101fb6106e6565b6040516102089190614ba1565b60405180910390f35b34801561021d57600080fd5b506102266106f0565b60405161023391906148c4565b60405180910390f35b34801561024857600080fd5b50610251610729565b60405161025e9190614873565b60405180910390f35b34801561027357600080fd5b5061028e600480360361028991908101906133ff565b61074f565b005b34801561029c57600080fd5b506102b760048036036102b2919081019061318a565b61075e565b6040516102c49190614ba1565b60405180910390f35b3480156102d957600080fd5b506102e2610776565b6040516102ef9190614797565b60405180910390f35b34801561030457600080fd5b5061031f600480360361031a91908101906131b3565b61078d565b005b34801561032d57600080fd5b5061033661091a565b6040516103439190614ba1565b60405180910390f35b34801561035857600080fd5b50610373600480360361036e9190810190613371565b61092c565b6040516103839493929190614736565b60405180910390f35b34801561039857600080fd5b506103a1610c09565b6040516103ae9190614ba1565b60405180910390f35b3480156103c357600080fd5b506103de60048036036103d99190810190613371565b610c12565b6040516103eb91906148a9565b60405180910390f35b34801561040057600080fd5b5061041b60048036036104169190810190613371565b610df6565b005b34801561042957600080fd5b50610432611192565b60405161043f9190614563565b60405180910390f35b34801561045457600080fd5b5061046f600480360361046a919081019061343b565b6111b8565b005b34801561047d57600080fd5b50610486611387565b005b34801561049457600080fd5b5061049d61145b565b6040516104aa9190614ba1565b60405180910390f35b3480156104bf57600080fd5b506104da60048036036104d591908101906131b3565b611464565b005b3480156104e857600080fd5b506104f16115ec565b6040516104fe9190614ba1565b60405180910390f35b34801561051357600080fd5b5061051c6115fe565b005b34801561052a57600080fd5b50610533611711565b604051610540919061488e565b60405180910390f35b34801561055557600080fd5b5061055e611736565b60405161056b9190614ba1565b60405180910390f35b34801561058057600080fd5b5061059b600480360361059691908101906131ef565b61173c565b6040516105a89190614ba1565b60405180910390f35b3480156105bd57600080fd5b506105d860048036036105d39190810190613371565b611d09565b005b3480156105e657600080fd5b506105ef612058565b6040516105fc9190614797565b60405180910390f35b34801561061157600080fd5b5061062c600480360361062791908101906133c3565b61206f565b6040516106399190614b86565b60405180910390f35b61065c60048036036106579190810190613371565b612151565b005b60046020528060005260406000206000915090508060000154908060010160009054906101000a900473ffffffffffffffffffffffffffffffffffffffff169080600201549080600701549080600801549080600901549080600a01549080600b0160009054906101000a900460ff169080600b0160019054906101000a900460ff16905089565b6000614380905090565b6040518060400160405280601781526020017f436f6d706f756e6420476f7665726e6f7220416c70686100000000000000000081525081565b600160009054906101000a900473ffffffffffffffffffffffffffffffffffffffff1681565b61075a33838361239e565b5050565b60056020528060005260406000206000915090505481565b60405161078290614539565b604051809103902081565b600260009054906101000a900473ffffffffffffffffffffffffffffffffffffffff1673ffffffffffffffffffffffffffffffffffffffff163373ffffffffffffffffffffffffffffffffffffffff161461081d576040517f08c379a000000000000000000000000000000000000000000000000000000000815260040161081490614946565b60405180910390fd5b6000809054906101000a900473ffffffffffffffffffffffffffffffffffffffff1673ffffffffffffffffffffffffffffffffffffffff16630825f38f6000809054906101000a900473ffffffffffffffffffffffffffffffffffffffff1660008560405160200161088f9190614563565b604051602081830303815290604052856040518563ffffffff1660e01b81526004016108be94939291906145a7565b600060405180830381600087803b1580156108d857600080fd5b505af11580156108ec573d6000803e3d6000fd5b505050506040513d6000823e3d601f19601f820116820180604052506109159190810190613330565b505050565b60006954b40b1f852bda000000905090565b606080606080600060046000878152602001908152602001600020905080600301816004018260050183600601838054806020026020016040519081016040528092919081815260200182805480156109da57602002820191906000526020600020905b8160009054906101000a900473ffffffffffffffffffffffffffffffffffffffff1673ffffffffffffffffffffffffffffffffffffffff1681526020019060010190808311610990575b5050505050935082805480602002602001604051908101604052809291908181526020018280548015610a2c57602002820191906000526020600020905b815481526020019060010190808311610a18575b5050505050925081805480602002602001604051908101604052809291908181526020016000905b82821015610b10578382906000526020600020018054600181600116156101000203166002900480601f016020809104026020016040519081016040528092919081815260200182805460018160011615610100020316600290048015610afc5780601f10610ad157610100808354040283529160200191610afc565b820191906000526020600020905b815481529060010190602001808311610adf57829003601f168201915b505050505081526020019060010190610a54565b50505050915080805480602002602001604051908101604052809291908181526020016000905b82821015610bf3578382906000526020600020018054600181600116156101000203166002900480601f016020809104026020016040519081016040528092919081815260200182805460018160011615610100020316600290048015610bdf5780601f10610bb457610100808354040283529160200191610bdf565b820191906000526020600020905b815481529060010190602001808311610bc257829003601f168201915b505050505081526020019060010190610b37565b5050505090509450945094509450509193509193565b60006001905090565b60008160035410158015610c265750600082115b610c65576040517f08c379a0000000000000000000000000000000000000000000000000000000008152600401610c5c90614966565b60405180910390fd5b600060046000848152602001908152602001600020905080600b0160009054906101000a900460ff1615610c9d576002915050610df1565b80600701544311610cb2576000915050610df1565b80600801544311610cc7576001915050610df1565b80600a01548160090154111580610ce85750610ce161091a565b8160090154105b15610cf7576003915050610df1565b600081600201541415610d0e576004915050610df1565b80600b0160019054906101000a900460ff1615610d2f576007915050610df1565b610ddb81600201546000809054906101000a900473ffffffffffffffffffffffffffffffffffffffff1673ffffffffffffffffffffffffffffffffffffffff1663c1a287e26040518163ffffffff1660e01b815260040160206040518083038186803b158015610d9e57600080fd5b505afa158015610db2573d6000803e3d6000fd5b505050506040513d601f19601f82011682018060405250610dd6919081019061339a565b61266d565b4210610deb576006915050610df1565b60059150505b919050565b6000610e0182610c12565b9050600780811115610e0f57fe5b816007811115610e1b57fe5b1415610e5c576040517f08c379a0000000000000000000000000000000000000000000000000000000008152600401610e5390614b06565b60405180910390fd5b6000600460008481526020019081526020016000209050600260009054906101000a900473ffffffffffffffffffffffffffffffffffffffff1673ffffffffffffffffffffffffffffffffffffffff163373ffffffffffffffffffffffffffffffffffffffff161480610fbd5750610ed26115ec565b600160009054906101000a900473ffffffffffffffffffffffffffffffffffffffff1673ffffffffffffffffffffffffffffffffffffffff1663782d6fe18360010160009054906101000a900473ffffffffffffffffffffffffffffffffffffffff16610f404360016126c2565b6040518363ffffffff1660e01b8152600401610f5d929190614606565b60206040518083038186803b158015610f7557600080fd5b505afa158015610f89573d6000803e3d6000fd5b505050506040513d601f19601f82011682018060405250610fad91908101906134b2565b6bffffffffffffffffffffffff16105b610ffc576040517f08c379a0000000000000000000000000000000000000000000000000000000008152600401610ff390614a46565b60405180910390fd5b600181600b0160006101000a81548160ff02191690831515021790555060008090505b8160030180549050811015611155576000809054906101000a900473ffffffffffffffffffffffffffffffffffffffff1673ffffffffffffffffffffffffffffffffffffffff1663591fcdfe83600301838154811061107a57fe5b9060005260206000200160009054906101000a900473ffffffffffffffffffffffffffffffffffffffff168460040184815481106110b457fe5b90600052602060002001548560050185815481106110ce57fe5b906000526020600020018660060186815481106110e757fe5b9060005260206000200187600201546040518663ffffffff1660e01b81526004016111169594939291906146d5565b600060405180830381600087803b15801561113057600080fd5b505af1158015611144573d6000803e3d6000fd5b50505050808060010191505061101f565b507f789cf55be980739dad1d0699b93b58e806b51c9d96619bfa8fe0a28abaa7b30c836040516111859190614ba1565b60405180910390a1505050565b600260009054906101000a900473ffffffffffffffffffffffffffffffffffffffff1681565b60006040516111c690614539565b60405180910390206040518060400160405280601781526020017f436f6d706f756e6420476f7665726e6f7220416c70686100000000000000000081525080519060200120611213612712565b3060405160200161122794939291906147b2565b604051602081830303815290604052805190602001209050600060405161124d9061454e565b60405180910390208787604051602001611269939291906147f7565b60405160208183030381529060405280519060200120905060008282604051602001611296929190614502565b6040516020818303038152906040528051906020012090506000600182888888604051600081526020016040526040516112d3949392919061482e565b6020604051602081039080840390855afa1580156112f5573d6000803e3d6000fd5b505050602060405103519050600073ffffffffffffffffffffffffffffffffffffffff168173ffffffffffffffffffffffffffffffffffffffff161415611371576040517f08c379a000000000000000000000000000000000000000000000000000000000815260040161136890614ac6565b60405180910390fd5b61137c818a8a61239e565b505050505050505050565b600260009054906101000a900473ffffffffffffffffffffffffffffffffffffffff1673ffffffffffffffffffffffffffffffffffffffff163373ffffffffffffffffffffffffffffffffffffffff1614611417576040517f08c379a000000000000000000000000000000000000000000000000000000000815260040161140e90614b66565b60405180910390fd5b6000600260006101000a81548173ffffffffffffffffffffffffffffffffffffffff021916908373ffffffffffffffffffffffffffffffffffffffff160217905550565b6000600a905090565b600260009054906101000a900473ffffffffffffffffffffffffffffffffffffffff1673ffffffffffffffffffffffffffffffffffffffff163373ffffffffffffffffffffffffffffffffffffffff16146114f4576040517f08c379a00000000000000000000000000000000000000000000000000000000081526004016114eb906149c6565b60405180910390fd5b6000809054906101000a900473ffffffffffffffffffffffffffffffffffffffff1673ffffffffffffffffffffffffffffffffffffffff16633a66f9016000809054906101000a900473ffffffffffffffffffffffffffffffffffffffff166000856040516020016115669190614563565b604051602081830303815290604052856040518563ffffffff1660e01b815260040161159594939291906145a7565b602060405180830381600087803b1580156115af57600080fd5b505af11580156115c3573d6000803e3d6000fd5b505050506040513d601f19601f820116820180604052506115e79190810190613307565b505050565b600069152d02c7e14af6800000905090565b600260009054906101000a900473ffffffffffffffffffffffffffffffffffffffff1673ffffffffffffffffffffffffffffffffffffffff163373ffffffffffffffffffffffffffffffffffffffff161461168e576040517f08c379a0000000000000000000000000000000000000000000000000000000008152600401611685906148e6565b60405180910390fd5b6000809054906101000a900473ffffffffffffffffffffffffffffffffffffffff1673ffffffffffffffffffffffffffffffffffffffff16630e18b6816040518163ffffffff1660e01b8152600401600060405180830381600087803b1580156116f757600080fd5b505af115801561170b573d6000803e3d6000fd5b50505050565b6000809054906101000a900473ffffffffffffffffffffffffffffffffffffffff1681565b60035481565b60006117466115ec565b600160009054906101000a900473ffffffffffffffffffffffffffffffffffffffff1673ffffffffffffffffffffffffffffffffffffffff1663782d6fe1336117904360016126c2565b6040518363ffffffff1660e01b81526004016117ad92919061457e565b60206040518083038186803b1580156117c557600080fd5b505afa1580156117d9573d6000803e3d6000fd5b505050506040513d601f19601f820116820180604052506117fd91908101906134b2565b6bffffffffffffffffffffffff161161184b576040517f08c379a000000000000000000000000000000000000000000000000000000000815260040161184290614aa6565b60405180910390fd5b8451865114801561185d575083518651145b801561186a575082518651145b6118a9576040517f08c379a00000000000000000000000000000000000000000000000000000000081526004016118a090614a26565b60405180910390fd5b6000865114156118ee576040517f08c379a00000000000000000000000000000000000000000000000000000000081526004016118e590614a86565b60405180910390fd5b6118f661145b565b86511115611939576040517f08c379a0000000000000000000000000000000000000000000000000000000008152600401611930906149e6565b60405180910390fd5b6000600560003373ffffffffffffffffffffffffffffffffffffffff1673ffffffffffffffffffffffffffffffffffffffff16815260200190815260200160002054905060008114611a4857600061199082610c12565b90506001600781111561199f57fe5b8160078111156119ab57fe5b14156119ec576040517f08c379a00000000000000000000000000000000000000000000000000000000081526004016119e390614ae6565b60405180910390fd5b600060078111156119f957fe5b816007811115611a0557fe5b1415611a46576040517f08c379a0000000000000000000000000000000000000000000000000000000008152600401611a3d906149a6565b60405180910390fd5b505b6000611a5b43611a56610c09565b61266d565b90506000611a7082611a6b6106e6565b61266d565b9050600360008154809291906001019190505550611a8c6128f3565b604051806101a0016040528060035481526020013373ffffffffffffffffffffffffffffffffffffffff168152602001600081526020018b81526020018a815260200189815260200188815260200184815260200183815260200160008152602001600081526020016000151581526020016000151581525090508060046000836000015181526020019081526020016000206000820151816000015560208201518160010160006101000a81548173ffffffffffffffffffffffffffffffffffffffff021916908373ffffffffffffffffffffffffffffffffffffffff160217905550604082015181600201556060820151816003019080519060200190611b96929190612975565b506080820151816004019080519060200190611bb39291906129ff565b5060a0820151816005019080519060200190611bd0929190612a4c565b5060c0820151816006019080519060200190611bed929190612aac565b5060e082015181600701556101008201518160080155610120820151816009015561014082015181600a015561016082015181600b0160006101000a81548160ff02191690831515021790555061018082015181600b0160016101000a81548160ff021916908315150217905550905050806000015160056000836020015173ffffffffffffffffffffffffffffffffffffffff1673ffffffffffffffffffffffffffffffffffffffff168152602001908152602001600020819055507f7d84a6263ae0d98d3329bd7b46bb4e8d6f98cd35a7adb45c274c8b7fd5ebd5e08160000151338c8c8c8c89898e604051611ced99989796959493929190614bbc565b60405180910390a1806000015194505050505095945050505050565b60046007811115611d1657fe5b611d1f82610c12565b6007811115611d2a57fe5b14611d6a576040517f08c379a0000000000000000000000000000000000000000000000000000000008152600401611d6190614906565b60405180910390fd5b60006004600083815260200190815260200160002090506000611e2b426000809054906101000a900473ffffffffffffffffffffffffffffffffffffffff1673ffffffffffffffffffffffffffffffffffffffff16636a42b8f86040518163ffffffff1660e01b815260040160206040518083038186803b158015611dee57600080fd5b505afa158015611e02573d6000803e3d6000fd5b505050506040513d601f19601f82011682018060405250611e26919081019061339a565b61266d565b905060008090505b826003018054905081101561201057612003836003018281548110611e5457fe5b9060005260206000200160009054906101000a900473ffffffffffffffffffffffffffffffffffffffff16846004018381548110611e8e57fe5b9060005260206000200154856005018481548110611ea857fe5b906000526020600020018054600181600116156101000203166002900480601f016020809104026020016040519081016040528092919081815260200182805460018160011615610100020316600290048015611f465780601f10611f1b57610100808354040283529160200191611f46565b820191906000526020600020905b815481529060010190602001808311611f2957829003601f168201915b5050505050866006018581548110611f5a57fe5b906000526020600020018054600181600116156101000203166002900480601f016020809104026020016040519081016040528092919081815260200182805460018160011615610100020316600290048015611ff85780601f10611fcd57610100808354040283529160200191611ff8565b820191906000526020600020905b815481529060010190602001808311611fdb57829003601f168201915b50505050508661271f565b8080600101915050611e33565b508082600201819055507f9a2e42fd6722813d69113e7d0079d3d940171428df7373df9c7f7617cfda2892838260405161204b929190614cf9565b60405180910390a1505050565b6040516120649061454e565b604051809103902081565b612077612b0c565b60046000848152602001908152602001600020600c0160008373ffffffffffffffffffffffffffffffffffffffff1673ffffffffffffffffffffffffffffffffffffffff1681526020019081526020016000206040518060600160405290816000820160009054906101000a900460ff161515151581526020016000820160019054906101000a900460ff161515151581526020016000820160029054906101000a90046bffffffffffffffffffffffff166bffffffffffffffffffffffff166bffffffffffffffffffffffff1681525050905092915050565b6005600781111561215e57fe5b61216782610c12565b600781111561217257fe5b146121b2576040517f08c379a00000000000000000000000000000000000000000000000000000000081526004016121a990614926565b60405180910390fd5b6000600460008381526020019081526020016000209050600181600b0160016101000a81548160ff02191690831515021790555060008090505b8160030180549050811015612362576000809054906101000a900473ffffffffffffffffffffffffffffffffffffffff1673ffffffffffffffffffffffffffffffffffffffff16630825f38f83600401838154811061224757fe5b906000526020600020015484600301848154811061226157fe5b9060005260206000200160009054906101000a900473ffffffffffffffffffffffffffffffffffffffff1685600401858154811061229b57fe5b90600052602060002001548660050186815481106122b557fe5b906000526020600020018760060187815481106122ce57fe5b9060005260206000200188600201546040518763ffffffff1660e01b81526004016122fd9594939291906146d5565b6000604051808303818588803b15801561231657600080fd5b505af115801561232a573d6000803e3d6000fd5b50505050506040513d6000823e3d601f19601f820116820180604052506123549190810190613330565b5080806001019150506121ec565b507f712ae1383f79ac853f8d882153778e0260ef8f03b504e2866e0593e04d2b291f826040516123929190614ba1565b60405180910390a15050565b600160078111156123ab57fe5b6123b483610c12565b60078111156123bf57fe5b146123ff576040517f08c379a00000000000000000000000000000000000000000000000000000000081526004016123f690614b26565b60405180910390fd5b6000600460008481526020019081526020016000209050600081600c0160008673ffffffffffffffffffffffffffffffffffffffff1673ffffffffffffffffffffffffffffffffffffffff1681526020019081526020016000209050600015158160000160009054906101000a900460ff161515146124b3576040517f08c379a00000000000000000000000000000000000000000000000000000000081526004016124aa90614986565b60405180910390fd5b6000600160009054906101000a900473ffffffffffffffffffffffffffffffffffffffff1673ffffffffffffffffffffffffffffffffffffffff1663782d6fe18785600701546040518363ffffffff1660e01b8152600401612516929190614606565b60206040518083038186803b15801561252e57600080fd5b505afa158015612542573d6000803e3d6000fd5b505050506040513d601f19601f8201168201806040525061256691908101906134b2565b905083156125975761258a8360090154826bffffffffffffffffffffffff1661266d565b83600901819055506125bc565b6125b383600a0154826bffffffffffffffffffffffff1661266d565b83600a01819055505b60018260000160006101000a81548160ff021916908315150217905550838260000160016101000a81548160ff021916908315150217905550808260000160026101000a8154816bffffffffffffffffffffffff02191690836bffffffffffffffffffffffff1602179055507f877856338e13f63d0c36822ff0ef736b80934cd90574a3a5bc9262c39d217c468686868460405161265d949392919061462f565b60405180910390a1505050505050565b6000808284019050838110156126b8576040517f08c379a00000000000000000000000000000000000000000000000000000000081526004016126af90614a06565b60405180910390fd5b8091505092915050565b600082821115612707576040517f08c379a00000000000000000000000000000000000000000000000000000000081526004016126fe90614b46565b60405180910390fd5b818303905092915050565b6000804690508091505090565b6000809054906101000a900473ffffffffffffffffffffffffffffffffffffffff1673ffffffffffffffffffffffffffffffffffffffff1663f2b065378686868686604051602001612775959493929190614674565b604051602081830303815290604052805190602001206040518263ffffffff1660e01b81526004016127a79190614797565b60206040518083038186803b1580156127bf57600080fd5b505afa1580156127d3573d6000803e3d6000fd5b505050506040513d601f19601f820116820180604052506127f791908101906132de565b15612837576040517f08c379a000000000000000000000000000000000000000000000000000000000815260040161282e90614a66565b60405180910390fd5b6000809054906101000a900473ffffffffffffffffffffffffffffffffffffffff1673ffffffffffffffffffffffffffffffffffffffff16633a66f90186868686866040518663ffffffff1660e01b8152600401612899959493929190614674565b602060405180830381600087803b1580156128b357600080fd5b505af11580156128c7573d6000803e3d6000fd5b505050506040513d601f19601f820116820180604052506128eb9190810190613307565b505050505050565b604051806101a0016040528060008152602001600073ffffffffffffffffffffffffffffffffffffffff1681526020016000815260200160608152602001606081526020016060815260200160608152602001600081526020016000815260200160008152602001600081526020016000151581526020016000151581525090565b8280548282559060005260206000209081019282156129ee579160200282015b828111156129ed5782518260006101000a81548173ffffffffffffffffffffffffffffffffffffffff021916908373ffffffffffffffffffffffffffffffffffffffff16021790555091602001919060010190612995565b5b5090506129fb9190612b3f565b5090565b828054828255906000526020600020908101928215612a3b579160200282015b82811115612a3a578251825591602001919060010190612a1f565b5b509050612a489190612b82565b5090565b828054828255906000526020600020908101928215612a9b579160200282015b82811115612a9a578251829080519060200190612a8a929190612ba7565b5091602001919060010190612a6c565b5b509050612aa89190612c27565b5090565b828054828255906000526020600020908101928215612afb579160200282015b82811115612afa578251829080519060200190612aea929190612c53565b5091602001919060010190612acc565b5b509050612b089190612cd3565b5090565b604051806060016040528060001515815260200160001515815260200160006bffffffffffffffffffffffff1681525090565b612b7f91905b80821115612b7b57600081816101000a81549073ffffffffffffffffffffffffffffffffffffffff021916905550600101612b45565b5090565b90565b612ba491905b80821115612ba0576000816000905550600101612b88565b5090565b90565b828054600181600116156101000203166002900490600052602060002090601f016020900481019282601f10612be857805160ff1916838001178555612c16565b82800160010185558215612c16579182015b82811115612c15578251825591602001919060010190612bfa565b5b509050612c239190612b82565b5090565b612c5091905b80821115612c4c5760008181612c439190612cff565b50600101612c2d565b5090565b90565b828054600181600116156101000203166002900490600052602060002090601f016020900481019282601f10612c9457805160ff1916838001178555612cc2565b82800160010185558215612cc2579182015b82811115612cc1578251825591602001919060010190612ca6565b5b509050612ccf9190612b82565b5090565b612cfc91905b80821115612cf85760008181612cef9190612d47565b50600101612cd9565b5090565b90565b50805460018160011615610100020316600290046000825580601f10612d255750612d44565b601f016020900490600052602060002090810190612d439190612b82565b5b50565b50805460018160011615610100020316600290046000825580601f10612d6d5750612d8c565b601f016020900490600052602060002090810190612d8b9190612b82565b5b50565b600081359050612d9e816151d0565b92915050565b600082601f830112612db557600080fd5b8135612dc8612dc382614d4f565b614d22565b91508181835260208401935060208101905083856020840282011115612ded57600080fd5b60005b83811015612e1d5781612e038882612d8f565b845260208401935060208301925050600181019050612df0565b5050505092915050565b600082601f830112612e3857600080fd5b8135612e4b612e4682614d77565b614d22565b9150818183526020840193506020810190508360005b83811015612e915781358601612e778882612fe6565b845260208401935060208301925050600181019050612e61565b5050505092915050565b600082601f830112612eac57600080fd5b8135612ebf612eba82614d9f565b614d22565b9150818183526020840193506020810190508360005b83811015612f055781358601612eeb888261308e565b845260208401935060208301925050600181019050612ed5565b5050505092915050565b600082601f830112612f2057600080fd5b8135612f33612f2e82614dc7565b614d22565b91508181835260208401935060208101905083856020840282011115612f5857600080fd5b60005b83811015612f885781612f6e8882613136565b845260208401935060208301925050600181019050612f5b565b5050505092915050565b600081359050612fa1816151e7565b92915050565b600081519050612fb6816151e7565b92915050565b600081359050612fcb816151fe565b92915050565b600081519050612fe0816151fe565b92915050565b600082601f830112612ff757600080fd5b813561300a61300582614def565b614d22565b9150808252602083016020830185838301111561302657600080fd5b613031838284615166565b50505092915050565b600082601f83011261304b57600080fd5b815161305e61305982614e1b565b614d22565b9150808252602083016020830185838301111561307a57600080fd5b613085838284615175565b50505092915050565b600082601f83011261309f57600080fd5b81356130b26130ad82614e47565b614d22565b915080825260208301602083018583830111156130ce57600080fd5b6130d9838284615166565b50505092915050565b600082601f8301126130f357600080fd5b813561310661310182614e73565b614d22565b9150808252602083016020830185838301111561312257600080fd5b61312d838284615166565b50505092915050565b60008135905061314581615215565b92915050565b60008151905061315a81615215565b92915050565b60008135905061316f8161522c565b92915050565b60008151905061318481615243565b92915050565b60006020828403121561319c57600080fd5b60006131aa84828501612d8f565b91505092915050565b600080604083850312156131c657600080fd5b60006131d485828601612d8f565b92505060206131e585828601613136565b9150509250929050565b600080600080600060a0868803121561320757600080fd5b600086013567ffffffffffffffff81111561322157600080fd5b61322d88828901612da4565b955050602086013567ffffffffffffffff81111561324a57600080fd5b61325688828901612f0f565b945050604086013567ffffffffffffffff81111561327357600080fd5b61327f88828901612e9b565b935050606086013567ffffffffffffffff81111561329c57600080fd5b6132a888828901612e27565b925050608086013567ffffffffffffffff8111156132c557600080fd5b6132d1888289016130e2565b9150509295509295909350565b6000602082840312156132f057600080fd5b60006132fe84828501612fa7565b91505092915050565b60006020828403121561331957600080fd5b600061332784828501612fd1565b91505092915050565b60006020828403121561334257600080fd5b600082015167ffffffffffffffff81111561335c57600080fd5b6133688482850161303a565b91505092915050565b60006020828403121561338357600080fd5b600061339184828501613136565b91505092915050565b6000602082840312156133ac57600080fd5b60006133ba8482850161314b565b91505092915050565b600080604083850312156133d657600080fd5b60006133e485828601613136565b92505060206133f585828601612d8f565b9150509250929050565b6000806040838503121561341257600080fd5b600061342085828601613136565b925050602061343185828601612f92565b9150509250929050565b600080600080600060a0868803121561345357600080fd5b600061346188828901613136565b955050602061347288828901612f92565b945050604061348388828901613160565b935050606061349488828901612fbc565b92505060806134a588828901612fbc565b9150509295509295909350565b6000602082840312156134c457600080fd5b60006134d284828501613175565b91505092915050565b60006134e78383613542565b60208301905092915050565b60006134ff8383613783565b905092915050565b600061351383836138c0565b905092915050565b600061352783836144b7565b60208301905092915050565b61353c816150b2565b82525050565b61354b81615028565b82525050565b61355a81615028565b82525050565b600061356b82614f09565b6135758185614f95565b935061358083614e9f565b8060005b838110156135b157815161359888826134db565b97506135a383614f61565b925050600181019050613584565b5085935050505092915050565b60006135c982614f14565b6135d38185614fa6565b9350836020820285016135e585614eaf565b8060005b85811015613621578484038952815161360285826134f3565b945061360d83614f6e565b925060208a019950506001810190506135e9565b50829750879550505050505092915050565b600061363e82614f1f565b6136488185614fb7565b93508360208202850161365a85614ebf565b8060005b8581101561369657848403895281516136778582613507565b945061368283614f7b565b925060208a0199505060018101905061365e565b50829750879550505050505092915050565b60006136b382614f2a565b6136bd8185614fc8565b93506136c883614ecf565b8060005b838110156136f95781516136e0888261351b565b97506136eb83614f88565b9250506001810190506136cc565b5085935050505092915050565b61370f8161503a565b82525050565b61371e8161503a565b82525050565b61372d81615046565b82525050565b61374461373f82615046565b6151a8565b82525050565b600061375582614f40565b61375f8185614fea565b935061376f818560208601615175565b613778816151b2565b840191505092915050565b600061378e82614f35565b6137988185614fd9565b93506137a8818560208601615175565b6137b1816151b2565b840191505092915050565b6000815460018116600081146137d957600181146137ff57613843565b607f60028304166137ea8187614fea565b955060ff198316865260208601935050613843565b6002820461380d8187614fea565b955061381885614edf565b60005b8281101561383a5781548189015260018201915060208101905061381b565b80880195505050505b505092915050565b613854816150c4565b82525050565b613863816150e8565b82525050565b6138728161510c565b82525050565b6138818161511e565b82525050565b600061389282614f56565b61389c818561500c565b93506138ac818560208601615175565b6138b5816151b2565b840191505092915050565b60006138cb82614f4b565b6138d58185614ffb565b93506138e5818560208601615175565b6138ee816151b2565b840191505092915050565b600061390482614f4b565b61390e818561500c565b935061391e818560208601615175565b613927816151b2565b840191505092915050565b60008154600181166000811461394f5760018114613975576139b9565b607f6002830416613960818761500c565b955060ff1983168652602086019350506139b9565b60028204613983818761500c565b955061398e85614ef4565b60005b828110156139b057815481890152600182019150602081019050613991565b80880195505050505b505092915050565b60006139ce60398361500c565b91507f476f7665726e6f72416c7068613a3a5f5f61636365707441646d696e3a20736560008301527f6e646572206d75737420626520676f7620677561726469616e000000000000006020830152604082019050919050565b6000613a3460448361500c565b91507f476f7665726e6f72416c7068613a3a71756575653a2070726f706f73616c206360008301527f616e206f6e6c792062652071756575656420696620697420697320737563636560208301527f65646564000000000000000000000000000000000000000000000000000000006040830152606082019050919050565b6000613ac060458361500c565b91507f476f7665726e6f72416c7068613a3a657865637574653a2070726f706f73616c60008301527f2063616e206f6e6c79206265206578656375746564206966206974206973207160208301527f75657565640000000000000000000000000000000000000000000000000000006040830152606082019050919050565b6000613b4c60028361501d565b91507f19010000000000000000000000000000000000000000000000000000000000006000830152600282019050919050565b6000613b8c604c8361500c565b91507f476f7665726e6f72416c7068613a3a5f5f6578656375746553657454696d656c60008301527f6f636b50656e64696e6741646d696e3a2073656e646572206d7573742062652060208301527f676f7620677561726469616e00000000000000000000000000000000000000006040830152606082019050919050565b6000613c1860188361500c565b91507f73657450656e64696e6741646d696e28616464726573732900000000000000006000830152602082019050919050565b6000613c5860298361500c565b91507f476f7665726e6f72416c7068613a3a73746174653a20696e76616c696420707260008301527f6f706f73616c20696400000000000000000000000000000000000000000000006020830152604082019050919050565b6000613cbe602d8361500c565b91507f476f7665726e6f72416c7068613a3a5f63617374566f74653a20766f7465722060008301527f616c726561647920766f746564000000000000000000000000000000000000006020830152604082019050919050565b6000613d2460598361500c565b91507f476f7665726e6f72416c7068613a3a70726f706f73653a206f6e65206c69766560008301527f2070726f706f73616c207065722070726f706f7365722c20666f756e6420616e60208301527f20616c72656164792070656e64696e672070726f706f73616c000000000000006040830152606082019050919050565b6000613db0604a8361500c565b91507f476f7665726e6f72416c7068613a3a5f5f717565756553657454696d656c6f6360008301527f6b50656e64696e6741646d696e3a2073656e646572206d75737420626520676f60208301527f7620677561726469616e000000000000000000000000000000000000000000006040830152606082019050919050565b6000613e3c60288361500c565b91507f476f7665726e6f72416c7068613a3a70726f706f73653a20746f6f206d616e7960008301527f20616374696f6e730000000000000000000000000000000000000000000000006020830152604082019050919050565b6000613ea260118361500c565b91507f6164646974696f6e206f766572666c6f770000000000000000000000000000006000830152602082019050919050565b6000613ee260438361501d565b91507f454950373132446f6d61696e28737472696e67206e616d652c75696e7432353660008301527f20636861696e49642c6164647265737320766572696679696e67436f6e74726160208301527f63742900000000000000000000000000000000000000000000000000000000006040830152604382019050919050565b6000613f6e60278361501d565b91507f42616c6c6f742875696e743235362070726f706f73616c49642c626f6f6c207360008301527f7570706f727429000000000000000000000000000000000000000000000000006020830152602782019050919050565b6000613fd460448361500c565b91507f476f7665726e6f72416c7068613a3a70726f706f73653a2070726f706f73616c60008301527f2066756e6374696f6e20696e666f726d6174696f6e206172697479206d69736d60208301527f61746368000000000000000000000000000000000000000000000000000000006040830152606082019050919050565b6000614060602f8361500c565b91507f476f7665726e6f72416c7068613a3a63616e63656c3a2070726f706f7365722060008301527f61626f7665207468726573686f6c6400000000000000000000000000000000006020830152604082019050919050565b60006140c660448361500c565b91507f476f7665726e6f72416c7068613a3a5f71756575654f725265766572743a207060008301527f726f706f73616c20616374696f6e20616c72656164792071756575656420617460208301527f20657461000000000000000000000000000000000000000000000000000000006040830152606082019050919050565b6000614152602c8361500c565b91507f476f7665726e6f72416c7068613a3a70726f706f73653a206d7573742070726f60008301527f7669646520616374696f6e7300000000000000000000000000000000000000006020830152604082019050919050565b60006141b8603f8361500c565b91507f476f7665726e6f72416c7068613a3a70726f706f73653a2070726f706f73657260008301527f20766f7465732062656c6f772070726f706f73616c207468726573686f6c64006020830152604082019050919050565b600061421e602f8361500c565b91507f476f7665726e6f72416c7068613a3a63617374566f746542795369673a20696e60008301527f76616c6964207369676e617475726500000000000000000000000000000000006020830152604082019050919050565b600061428460588361500c565b91507f476f7665726e6f72416c7068613a3a70726f706f73653a206f6e65206c69766560008301527f2070726f706f73616c207065722070726f706f7365722c20666f756e6420616e60208301527f20616c7265616479206163746976652070726f706f73616c00000000000000006040830152606082019050919050565b600061431060368361500c565b91507f476f7665726e6f72416c7068613a3a63616e63656c3a2063616e6e6f7420636160008301527f6e63656c2065786563757465642070726f706f73616c000000000000000000006020830152604082019050919050565b6000614376602a8361500c565b91507f476f7665726e6f72416c7068613a3a5f63617374566f74653a20766f74696e6760008301527f20697320636c6f736564000000000000000000000000000000000000000000006020830152604082019050919050565b60006143dc60158361500c565b91507f7375627472616374696f6e20756e646572666c6f7700000000000000000000006000830152602082019050919050565b600061441c60368361500c565b91507f476f7665726e6f72416c7068613a3a5f5f61626469636174653a2073656e646560008301527f72206d75737420626520676f7620677561726469616e000000000000000000006020830152604082019050919050565b60608201600082015161448b6000850182613706565b50602082015161449e6020850182613706565b5060408201516144b160408501826144f3565b50505050565b6144c081615083565b82525050565b6144cf81615083565b82525050565b6144de8161508d565b82525050565b6144ed81615154565b82525050565b6144fc8161509a565b82525050565b600061450d82613b3f565b91506145198285613733565b6020820191506145298284613733565b6020820191508190509392505050565b600061454482613ed5565b9150819050919050565b600061455982613f61565b9150819050919050565b60006020820190506145786000830184613551565b92915050565b60006040820190506145936000830185613533565b6145a060208301846144c6565b9392505050565b600060a0820190506145bc6000830187613551565b6145c96020830186613878565b81810360408301526145da81613c0b565b905081810360608301526145ee818561374a565b90506145fd60808301846144c6565b95945050505050565b600060408201905061461b6000830185613551565b61462860208301846144c6565b9392505050565b60006080820190506146446000830187613551565b61465160208301866144c6565b61465e6040830185613715565b61466b60608301846144e4565b95945050505050565b600060a0820190506146896000830188613551565b61469660208301876144c6565b81810360408301526146a88186613887565b905081810360608301526146bc818561374a565b90506146cb60808301846144c6565b9695505050505050565b600060a0820190506146ea6000830188613551565b6146f760208301876144c6565b81810360408301526147098186613932565b9050818103606083015261471d81856137bc565b905061472c60808301846144c6565b9695505050505050565b600060808201905081810360008301526147508187613560565b9050818103602083015261476481866136a8565b905081810360408301526147788185613633565b9050818103606083015261478c81846135be565b905095945050505050565b60006020820190506147ac6000830184613724565b92915050565b60006080820190506147c76000830187613724565b6147d46020830186613724565b6147e160408301856144c6565b6147ee6060830184613551565b95945050505050565b600060608201905061480c6000830186613724565b61481960208301856144c6565b6148266040830184613715565b949350505050565b60006080820190506148436000830187613724565b61485060208301866144d5565b61485d6040830185613724565b61486a6060830184613724565b95945050505050565b6000602082019050614888600083018461384b565b92915050565b60006020820190506148a3600083018461385a565b92915050565b60006020820190506148be6000830184613869565b92915050565b600060208201905081810360008301526148de81846138f9565b905092915050565b600060208201905081810360008301526148ff816139c1565b9050919050565b6000602082019050818103600083015261491f81613a27565b9050919050565b6000602082019050818103600083015261493f81613ab3565b9050919050565b6000602082019050818103600083015261495f81613b7f565b9050919050565b6000602082019050818103600083015261497f81613c4b565b9050919050565b6000602082019050818103600083015261499f81613cb1565b9050919050565b600060208201905081810360008301526149bf81613d17565b9050919050565b600060208201905081810360008301526149df81613da3565b9050919050565b600060208201905081810360008301526149ff81613e2f565b9050919050565b60006020820190508181036000830152614a1f81613e95565b9050919050565b60006020820190508181036000830152614a3f81613fc7565b9050919050565b60006020820190508181036000830152614a5f81614053565b9050919050565b60006020820190508181036000830152614a7f816140b9565b9050919050565b60006020820190508181036000830152614a9f81614145565b9050919050565b60006020820190508181036000830152614abf816141ab565b9050919050565b60006020820190508181036000830152614adf81614211565b9050919050565b60006020820190508181036000830152614aff81614277565b9050919050565b60006020820190508181036000830152614b1f81614303565b9050919050565b60006020820190508181036000830152614b3f81614369565b9050919050565b60006020820190508181036000830152614b5f816143cf565b9050919050565b60006020820190508181036000830152614b7f8161440f565b9050919050565b6000606082019050614b9b6000830184614475565b92915050565b6000602082019050614bb660008301846144c6565b92915050565b600061012082019050614bd2600083018c6144c6565b614bdf602083018b613533565b8181036040830152614bf1818a613560565b90508181036060830152614c0581896136a8565b90508181036080830152614c198188613633565b905081810360a0830152614c2d81876135be565b9050614c3c60c08301866144c6565b614c4960e08301856144c6565b818103610100830152614c5c8184613887565b90509a9950505050505050505050565b600061012082019050614c82600083018c6144c6565b614c8f602083018b613551565b614c9c604083018a6144c6565b614ca960608301896144c6565b614cb660808301886144c6565b614cc360a08301876144c6565b614cd060c08301866144c6565b614cdd60e0830185613715565b614ceb610100830184613715565b9a9950505050505050505050565b6000604082019050614d0e60008301856144c6565b614d1b60208301846144c6565b9392505050565b6000604051905081810181811067ffffffffffffffff82111715614d4557600080fd5b8060405250919050565b600067ffffffffffffffff821115614d6657600080fd5b602082029050602081019050919050565b600067ffffffffffffffff821115614d8e57600080fd5b602082029050602081019050919050565b600067ffffffffffffffff821115614db657600080fd5b602082029050602081019050919050565b600067ffffffffffffffff821115614dde57600080fd5b602082029050602081019050919050565b600067ffffffffffffffff821115614e0657600080fd5b601f19601f8301169050602081019050919050565b600067ffffffffffffffff821115614e3257600080fd5b601f19601f8301169050602081019050919050565b600067ffffffffffffffff821115614e5e57600080fd5b601f19601f8301169050602081019050919050565b600067ffffffffffffffff821115614e8a57600080fd5b601f19601f8301169050602081019050919050565b6000819050602082019050919050565b6000819050602082019050919050565b6000819050602082019050919050565b6000819050602082019050919050565b60008190508160005260206000209050919050565b60008190508160005260206000209050919050565b600081519050919050565b600081519050919050565b600081519050919050565b600081519050919050565b600081519050919050565b600081519050919050565b600081519050919050565b600081519050919050565b6000602082019050919050565b6000602082019050919050565b6000602082019050919050565b6000602082019050919050565b600082825260208201905092915050565b600082825260208201905092915050565b600082825260208201905092915050565b600082825260208201905092915050565b600082825260208201905092915050565b600082825260208201905092915050565b600082825260208201905092915050565b600082825260208201905092915050565b600081905092915050565b600061503382615063565b9050919050565b60008115159050919050565b6000819050919050565b600081905061505e826151c3565b919050565b600073ffffffffffffffffffffffffffffffffffffffff82169050919050565b6000819050919050565b600060ff82169050919050565b60006bffffffffffffffffffffffff82169050919050565b60006150bd82615130565b9050919050565b60006150cf826150d6565b9050919050565b60006150e182615063565b9050919050565b60006150f3826150fa565b9050919050565b600061510582615063565b9050919050565b600061511782615050565b9050919050565b600061512982615083565b9050919050565b600061513b82615142565b9050919050565b600061514d82615063565b9050919050565b600061515f8261509a565b9050919050565b82818337600083830152505050565b60005b83811015615193578082015181840152602081019050615178565b838111156151a2576000848401525b50505050565b6000819050919050565b6000601f19601f8301169050919050565b600881106151cd57fe5b50565b6151d981615028565b81146151e457600080fd5b50565b6151f08161503a565b81146151fb57600080fd5b50565b61520781615046565b811461521257600080fd5b50565b61521e81615083565b811461522957600080fd5b50565b6152358161508d565b811461524057600080fd5b50565b61524c8161509a565b811461525757600080fd5b5056fea365627a7a72315820050945ae0e12e58eaa9a11891a174453bf0c0d8775d3ff9242d1f83d56af87a76c6578706572696d656e74616cf564736f6c63430005100040",
  "source": "pragma solidity ^0.5.16;\npragma experimental ABIEncoderV2;\n\ncontract GovernorAlpha {\n    /// @notice The name of this contract\n    string public constant name = \"Compound Governor Alpha\";\n\n    /// @notice The number of votes in support of a proposal required in order for a quorum to be reached and for a vote to succeed\n    function quorumVotes() public pure returns (uint) { return 400000e18; } // 400,000 = 4% of Comp\n\n    /// @notice The number of votes required in order for a voter to become a proposer\n    function proposalThreshold() public pure returns (uint) { return 100000e18; } // 100,000 = 1% of Comp\n\n    /// @notice The maximum number of actions that can be included in a proposal\n    function proposalMaxOperations() public pure returns (uint) { return 10; } // 10 actions\n\n    /// @notice The delay before voting on a proposal may take place, once proposed\n    function votingDelay() public pure returns (uint) { return 1; } // 1 block\n\n    /// @notice The duration of voting on a proposal, in blocks\n    function votingPeriod() public pure returns (uint) { return 17280; } // ~3 days in blocks (assuming 15s blocks)\n\n    /// @notice The address of the Compound Protocol Timelock\n    TimelockInterface public timelock;\n\n    /// @notice The address of the Compound governance token\n    CompInterface public comp;\n\n    /// @notice The address of the Governor Guardian\n    address public guardian;\n\n    /// @notice The total number of proposals\n    uint public proposalCount;\n\n    struct Proposal {\n        /// @notice Unique id for looking up a proposal\n        uint id;\n\n        /// @notice Creator of the proposal\n        address proposer;\n\n        /// @notice The timestamp that the proposal will be available for execution, set once the vote succeeds\n        uint eta;\n\n        /// @notice the ordered list of target addresses for calls to be made\n        address[] targets;\n\n        /// @notice The ordered list of values (i.e. msg.value) to be passed to the calls to be made\n        uint[] values;\n\n        /// @notice The ordered list of function signatures to be called\n        string[] signatures;\n\n        /// @notice The ordered list of calldata to be passed to each call\n        bytes[] calldatas;\n\n        /// @notice The block at which voting begins: holders must delegate their votes prior to this block\n        uint startBlock;\n\n        /// @notice The block at which voting ends: votes must be cast prior to this block\n        uint endBlock;\n\n        /// @notice Current number of votes in favor of this proposal\n        uint forVotes;\n\n        /// @notice Current number of votes in opposition to this proposal\n        uint againstVotes;\n\n        /// @notice Flag marking whether the proposal has been canceled\n        bool canceled;\n\n        /// @notice Flag marking whether the proposal has been executed\n        bool executed;\n\n        /// @notice Receipts of ballots for the entire set of voters\n        mapping (address => Receipt) receipts;\n    }\n\n    /// @notice Ballot receipt record for a voter\n    struct Receipt {\n        /// @notice Whether or not a vote has been cast\n        bool hasVoted;\n\n        /// @notice Whether or not the voter supports the proposal\n        bool support;\n\n        /// @notice The number of votes the voter had, which were cast\n        uint96 votes;\n    }\n\n    /// @notice Possible states that a proposal may be in\n    enum ProposalState {\n        Pending,\n        Active,\n        Canceled,\n        Defeated,\n        Succeeded,\n        Queued,\n        Expired,\n        Executed\n    }\n\n    /// @notice The official record of all proposals ever proposed\n    mapping (uint => Proposal) public proposals;\n\n    /// @notice The latest proposal for each proposer\n    mapping (address => uint) public latestProposalIds;\n\n    /// @notice The EIP-712 typehash for the contract's domain\n    bytes32 public constant DOMAIN_TYPEHASH = keccak256(\"EIP712Domain(string name,uint256 chainId,address verifyingContract)\");\n\n    /// @notice The EIP-712 typehash for the ballot struct used by the contract\n    bytes32 public constant BALLOT_TYPEHASH = keccak256(\"Ballot(uint256 proposalId,bool support)\");\n\n    /// @notice An event emitted when a new proposal is created\n    event ProposalCreated(uint id, address proposer, address[] targets, uint[] values, string[] signatures, bytes[] calldatas, uint startBlock, uint endBlock, string description);\n\n    /// @notice An event emitted when a vote has been cast on a proposal\n    event VoteCast(address voter, uint proposalId, bool support, uint votes);\n\n    /// @notice An event emitted when a proposal has been canceled\n    event ProposalCanceled(uint id);\n\n    /// @notice An event emitted when a proposal has been queued in the Timelock\n    event ProposalQueued(uint id, uint eta);\n\n    /// @notice An event emitted when a proposal has been executed in the Timelock\n    event ProposalExecuted(uint id);\n\n    constructor(address timelock_, address comp_, address guardian_) public {\n        timelock = TimelockInterface(timelock_);\n        comp = CompInterface(comp_);\n        guardian = guardian_;\n    }\n\n    function propose(address[] memory targets, uint[] memory values, string[] memory signatures, bytes[] memory calldatas, string memory description) public returns (uint) {\n        require(comp.getPriorVotes(msg.sender, sub256(block.number, 1)) > proposalThreshold(), \"GovernorAlpha::propose: proposer votes below proposal threshold\");\n        require(targets.length == values.length && targets.length == signatures.length && targets.length == calldatas.length, \"GovernorAlpha::propose: proposal function information arity mismatch\");\n        require(targets.length != 0, \"GovernorAlpha::propose: must provide actions\");\n        require(targets.length <= proposalMaxOperations(), \"GovernorAlpha::propose: too many actions\");\n\n        uint latestProposalId = latestProposalIds[msg.sender];\n        if (latestProposalId != 0) {\n          ProposalState proposersLatestProposalState = state(latestProposalId);\n          require(proposersLatestProposalState != ProposalState.Active, \"GovernorAlpha::propose: one live proposal per proposer, found an already active proposal\");\n          require(proposersLatestProposalState != ProposalState.Pending, \"GovernorAlpha::propose: one live proposal per proposer, found an already pending proposal\");\n        }\n\n        uint startBlock = add256(block.number, votingDelay());\n        uint endBlock = add256(startBlock, votingPeriod());\n\n        proposalCount++;\n        Proposal memory newProposal = Proposal({\n            id: proposalCount,\n            proposer: msg.sender,\n            eta: 0,\n            targets: targets,\n            values: values,\n            signatures: signatures,\n            calldatas: calldatas,\n            startBlock: startBlock,\n            endBlock: endBlock,\n            forVotes: 0,\n            againstVotes: 0,\n            canceled: false,\n            executed: false\n        });\n\n        proposals[newProposal.id] = newProposal;\n        latestProposalIds[newProposal.proposer] = newProposal.id;\n\n        emit ProposalCreated(newProposal.id, msg.sender, targets, values, signatures, calldatas, startBlock, endBlock, description);\n        return newProposal.id;\n    }\n\n    function queue(uint proposalId) public {\n        require(state(proposalId) == ProposalState.Succeeded, \"GovernorAlpha::queue: proposal can only be queued if it is succeeded\");\n        Proposal storage proposal = proposals[proposalId];\n        uint eta = add256(block.timestamp, timelock.delay());\n        for (uint i = 0; i < proposal.targets.length; i++) {\n            _queueOrRevert(proposal.targets[i], proposal.values[i], proposal.signatures[i], proposal.calldatas[i], eta);\n        }\n        proposal.eta = eta;\n        emit ProposalQueued(proposalId, eta);\n    }\n\n    function _queueOrRevert(address target, uint value, string memory signature, bytes memory data, uint eta) internal {\n        require(!timelock.queuedTransactions(keccak256(abi.encode(target, value, signature, data, eta))), \"GovernorAlpha::_queueOrRevert: proposal action already queued at eta\");\n        timelock.queueTransaction(target, value, signature, data, eta);\n    }\n\n    function execute(uint proposalId) public payable {\n        require(state(proposalId) == ProposalState.Queued, \"GovernorAlpha::execute: proposal can only be executed if it is queued\");\n        Proposal storage proposal = proposals[proposalId];\n        proposal.executed = true;\n        for (uint i = 0; i < proposal.targets.length; i++) {\n            timelock.executeTransaction.value(proposal.values[i])(proposal.targets[i], proposal.values[i], proposal.signatures[i], proposal.calldatas[i], proposal.eta);\n        }\n        emit ProposalExecuted(proposalId);\n    }\n\n    function cancel(uint proposalId) public {\n        ProposalState state = state(proposalId);\n        require(state != ProposalState.Executed, \"GovernorAlpha::cancel: cannot cancel executed proposal\");\n\n        Proposal storage proposal = proposals[proposalId];\n        require(msg.sender == guardian || comp.getPriorVotes(proposal.proposer, sub256(block.number, 1)) < proposalThreshold(), \"GovernorAlpha::cancel: proposer above threshold\");\n\n        proposal.canceled = true;\n        for (uint i = 0; i < proposal.targets.length; i++) {\n            timelock.cancelTransaction(proposal.targets[i], proposal.values[i], proposal.signatures[i], proposal.calldatas[i], proposal.eta);\n        }\n\n        emit ProposalCanceled(proposalId);\n    }\n\n    function getActions(uint proposalId) public view returns (address[] memory targets, uint[] memory values, string[] memory signatures, bytes[] memory calldatas) {\n        Proposal storage p = proposals[proposalId];\n        return (p.targets, p.values, p.signatures, p.calldatas);\n    }\n\n    function getReceipt(uint proposalId, address voter) public view returns (Receipt memory) {\n        return proposals[proposalId].receipts[voter];\n    }\n\n    function state(uint proposalId) public view returns (ProposalState) {\n        require(proposalCount >= proposalId && proposalId > 0, \"GovernorAlpha::state: invalid proposal id\");\n        Proposal storage proposal = proposals[proposalId];\n        if (proposal.canceled) {\n            return ProposalState.Canceled;\n        } else if (block.number <= proposal.startBlock) {\n            return ProposalState.Pending;\n        } else if (block.number <= proposal.endBlock) {\n            return ProposalState.Active;\n        } else if (proposal.forVotes <= proposal.againstVotes || proposal.forVotes < quorumVotes()) {\n            return ProposalState.Defeated;\n        } else if (proposal.eta == 0) {\n            return ProposalState.Succeeded;\n        } else if (proposal.executed) {\n            return ProposalState.Executed;\n        } else if (block.timestamp >= add256(proposal.eta, timelock.GRACE_PERIOD())) {\n            return ProposalState.Expired;\n        } else {\n            return ProposalState.Queued;\n        }\n    }\n\n    function castVote(uint proposalId, bool support) public {\n        return _castVote(msg.sender, proposalId, support);\n    }\n\n    function castVoteBySig(uint proposalId, bool support, uint8 v, bytes32 r, bytes32 s) public {\n        bytes32 domainSeparator = keccak256(abi.encode(DOMAIN_TYPEHASH, keccak256(bytes(name)), getChainId(), address(this)));\n        bytes32 structHash = keccak256(abi.encode(BALLOT_TYPEHASH, proposalId, support));\n        bytes32 digest = keccak256(abi.encodePacked(\"\\x19\\x01\", domainSeparator, structHash));\n        address signatory = ecrecover(digest, v, r, s);\n        require(signatory != address(0), \"GovernorAlpha::castVoteBySig: invalid signature\");\n        return _castVote(signatory, proposalId, support);\n    }\n\n    function _castVote(address voter, uint proposalId, bool support) internal {\n        require(state(proposalId) == ProposalState.Active, \"GovernorAlpha::_castVote: voting is closed\");\n        Proposal storage proposal = proposals[proposalId];\n        Receipt storage receipt = proposal.receipts[voter];\n        require(receipt.hasVoted == false, \"GovernorAlpha::_castVote: voter already voted\");\n        uint96 votes = comp.getPriorVotes(voter, proposal.startBlock);\n\n        if (support) {\n            proposal.forVotes = add256(proposal.forVotes, votes);\n        } else {\n            proposal.againstVotes = add256(proposal.againstVotes, votes);\n        }\n\n        receipt.hasVoted = true;\n        receipt.support = support;\n        receipt.votes = votes;\n\n        emit VoteCast(voter, proposalId, support, votes);\n    }\n\n    function __acceptAdmin() public {\n        require(msg.sender == guardian, \"GovernorAlpha::__acceptAdmin: sender must be gov guardian\");\n        timelock.acceptAdmin();\n    }\n\n    function __abdicate() public {\n        require(msg.sender == guardian, \"GovernorAlpha::__abdicate: sender must be gov guardian\");\n        guardian = address(0);\n    }\n\n    function __queueSetTimelockPendingAdmin(address newPendingAdmin, uint eta) public {\n        require(msg.sender == guardian, \"GovernorAlpha::__queueSetTimelockPendingAdmin: sender must be gov guardian\");\n        timelock.queueTransaction(address(timelock), 0, \"setPendingAdmin(address)\", abi.encode(newPendingAdmin), eta);\n    }\n\n    function __executeSetTimelockPendingAdmin(address newPendingAdmin, uint eta) public {\n        require(msg.sender == guardian, \"GovernorAlpha::__executeSetTimelockPendingAdmin: sender must be gov guardian\");\n        timelock.executeTransaction(address(timelock), 0, \"setPendingAdmin(address)\", abi.encode(newPendingAdmin), eta);\n    }\n\n    function add256(uint256 a, uint256 b) internal pure returns (uint) {\n        uint c = a + b;\n        require(c >= a, \"addition overflow\");\n        return c;\n    }\n\n    function sub256(uint256 a, uint256 b) internal pure returns (uint) {\n        require(b <= a, \"subtraction underflow\");\n        return a - b;\n    }\n\n    function getChainId() internal pure returns (uint) {\n        uint chainId;\n        assembly { chainId := chainid() }\n        return chainId;\n    }\n}\n\ninterface TimelockInterface {\n    function delay() external view returns (uint);\n    function GRACE_PERIOD() external view returns (uint);\n    function acceptAdmin() external;\n    function queuedTransactions(bytes32 hash) external view returns (bool);\n    function queueTransaction(address target, uint value, string calldata signature, bytes calldata data, uint eta) external returns (bytes32);\n    function cancelTransaction(address target, uint value, string calldata signature, bytes calldata data, uint eta) external;\n    function executeTransaction(address target, uint value, string calldata signature, bytes calldata data, uint eta) external payable returns (bytes memory);\n}\n\ninterface CompInterface {\n    function getPriorVotes(address account, uint blockNumber) external view returns (uint96);\n}\n",
  "sourcePath": "/Users/rpark23/Desktop/compound-alpha/contracts/GovernorAlpha.sol",
  "compiler": {
    "name": "solc",
    "version": "0.5.16+commit.9c3226ce.Emscripten.clang"
  },
  "schemaVersion": "3.3.4",
  "updatedAt": "2021-07-13T04:22:51.664Z",
  "networkType": "ethereum",
  "devdoc": {
    "methods": {}
  },
  "userdoc": {
    "methods": {
      "proposalMaxOperations()": {
        "notice": "The maximum number of actions that can be included in a proposal"
      },
      "proposalThreshold()": {
        "notice": "The number of votes required in order for a voter to become a proposer"
      },
      "quorumVotes()": {
        "notice": "The number of votes in support of a proposal required in order for a quorum to be reached and for a vote to succeed"
      },
      "votingDelay()": {
        "notice": "The delay before voting on a proposal may take place, once proposed"
      },
      "votingPeriod()": {
        "notice": "The duration of voting on a proposal, in blocks"
      }
    }
  }
}